S00C0000746573742E7372656358
S11300000C948A060C942D070C942D070C942D0740
S11300100C94A20B0C942D070C942D070C942D0713
S11300200C942D070C942D070C942D070C942D077C
S11300300C942D070C942D070C942D070C942D076C
S11300400C942D070C942D070C942D070C942D075C
S11300500C942D0748656C6C6F2C20776F726C6460
S1130060210000000000000000000000000000006B
S11300700000183C3C3C18180018180000000066EA
S113008066662400000000000000000000006C6CA4
S1130090FE6C6C6CFE6C6C00000018187CC6C2C050
S11300A07C0686C67C18180000000000C2C60C1826
S11300B03066C60000000000386C6C3876DCCCCCAE
S11300C076000000003030306000000000000000C6
S11300D0000000000C183030303030180C000000E4
S11300E0000030180C0C0C0C0C1830000000000040
S11300F00000663CFF3C66000000000000000000B9
S113010018187E181800000000000000000000000D
S11301100000181818300000000000000000FE0065
S113012000000000000000000000000000000018B3
S113013018000000000002060C183060C0800000A7
S1130140000000007CC6CEDEF6E6C6C67C000000D9
S1130150000018387818181818187E0000000000DD
S11301607CC6060C183060C6FE00000000007CC689
S113017006063C0606C67C00000000000C1C3C6C15
S1130180CCFE0C0C1E0000000000FEC0C0C0FC062B
S113019006C67C00000000003860C0C0FCC6C6C6AD
S11301A07C0000000000FEC6060C18303030300021
S11301B0000000007CC6C6C67CC6C6C67C00000023
S11301C000007CC6C6C67E06060C7800000000004F
S11301D000181800000018180000000000000018A3
S11301E0180000001818300000000000060C183039
S11301F06030180C0600000000000000007E0000C3
S11302007E000000000000006030180C060C18305E
S11302106000000000007CC6C60C18180018180006
S1130220000000007CC6C6DEDEDEDCC07C00000010
S1130230000010386CC6C6FEC6C6C600000000002A
S1130240FC6666667C666666FC00000000003C6630
S1130250C2C0C0C0C2663C0000000000F86C666604
S11302606666666CF80000000000FE6662687868E6
S11302706266FE0000000000FE66626878686060E6
S1130280F000000000003C66C2C0C0DEC6663A0052
S113029000000000C6C6C6C6FEC6C6C6C60000002C
S11302A000003C181818181818183C00000000002A
S11302B01E0C0C0C0C0CCCCC780000000000E66684
S11302C06C6C786C6C66E60000000000F0606060A6
S11302D060606266FE0000000000C6EEFEFED6C648
S11302E0C6C6C60000000000C6E6F6FEDECEC6C6E0
S11302F0C60000000000386CC6C6C6C6C66C38000E
S113030000000000FC6666667C606060F00000002F
S113031000007CC6C6C6C6D6DE7C0C0E00000000FB
S1130320FC6666667C6C6666E600000000007CC6BF
S1130330C660380CC6C67C00000000007E7E5A18D9
S1130340181818183C0000000000C6C6C6C6C6C669
S1130350C6C67C0000000000C6C6C6C6C6C66C3849
S1130360100000000000C6C6C6C6D6D6FE7C6C00CF
S113037000000000C6C66C3838386CC6C6000000E1
S11303800000666666663C1818183C000000000011
S1130390FEC68C183060C2C6FE00000000003C306F
S11303A03030303030303C000000000080C0E0705D
S11303B0381C0E060200000000003C0C0C0C0C0C57
S11303C00C0C3C00000010386CC60000000000005B
S11303D00000000000000000000000000000000019
S11303E0FF00303018000000000000000000000092
S11303F00000000000780C7CCCCC760000000000EB
S1130400E06060786C6666667C00000000000000B6
S1130410007CC6C0C0C67C00000000001C0C0C3C64
S11304206CCCCCCC7600000000000000007CC6FE42
S1130430C0C67C0000000000386C6460F06060603E
S1130440F0000000000000000076CCCCCC7C0CCC8A
S113045078000000E060606C76666666E600000086
S1130460000018180038181818183C000000000084
S11304700606000E0606060666663C000000E060FE
S113048060666C786C66E600000000003818181886
S1130490181818183C0000000000000000ECFED6FC
S11304A0D6D6C60000000000000000DC6666666662
S11304B06600000000000000007CC6C6C6C67C00C2
S11304C000000000000000DC6666667C6060F000EE
S11304D0000000000076CCCCCC7C0C0C1E0000008C
S11304E0000000DC76666060F000000000000000A0
S11304F0007CC6701CC67C0000000000103030FC7C
S1130500303030361C0000000000000000CCCCCCA1
S1130510CCCC760000000000000000666666663CF5
S1130520180000000000000000C6C6D6D6FE6C000D
S113053000000000000000C66C38386CC6000000E3
S11305400000000000C6C6C6C67E060CF800000007
S1130550000000FECC183066FE00000000000E18FB
S11305601818701818180E00000000001818181831
S113057000181818180000000000701818180E1839
S1130580181870000000000076DC00000000000075
S11305900000000000000000000000000042427E55
S11305A00000000000000000000000000000000047
S11305B00000000000000000000000000000000037
S11305C00000000000000000000000000000000027
S11305D00000000000000000000000000000000017
S11305E00000000000000000000000000000000007
S11305F000000000000000000000000000000000F7
S113060000000000000000000000000000000000E6
S113061000000000000000000000000000000000D6
S113062000000000000000000000000000000000C6
S113063000000000000000000000000000000000B6
S113064000000000000000000000000000000000A6
S11306500000000000000000000000000000000096
S11306600000000000000000000000000000000086
S11306700000000000000000000000000000000076
S11306800000000000000000000000000000000066
S11306900000000000000000000000000000000056
S11306A00000000000000000000000000000000046
S11306B00000000000000000000000000000000036
S11306C0000000000000000000000000000000180E
S11306D018000000000000000000000000000000FE
S11306E00000000000000000000000000000000006
S11306F000000000000000000000000000000000F6
S113070000000000000000000000000000000000E5
S113071000000000000000000000000000000000D5
S113072000000000000000000000000000000000C5
S113073000000000000000000000000000000000B5
S113074000000000000000000000000000000000A5
S11307500000000000000000000000000000000095
S11307600000000000000000000000000000000085
S1130770000000001818007E001818000000000097
S113078000000076DC0076DC0000000000000000C1
S1130790000000000000000000000070D83060C8B5
S11307A0F80000000000000000000000000000004D
S11307B00000000000000000000000000000000035
S11307C00000000000000000000000000000000025
S11307D0000000000000FE0000FE0000FE0000001B
S11307E00000000000000000000000000000000005
S11307F00030180C060C1830007E000000000000C9
S113080000000000000000000000000000000000E4
S113081000000000000000000000000000000000D4
S113082000000000000000000000000000000000C4
S11308300000000000000E1B1B18181818181818C8
S1130840181800386C6C380000000000000000002C
S11308500000000000000000000000000000000094
S11308600000000000000000000000000000000084
S11308700000000000000000000000000000000074
S11308800000000000000000000000000000000064
S11308900000000000000000000000000000000054
S11308A0000000000000000000000000180000002C
S11308B000000000000018187E18180000FF000057
S11308C00000003C4299A5A1A599423C000000000B
S11308D0000C18306030180C007E0000000000008E
S11308E00000000000000000000000000000000004
S11308F000000000000000000000000000000000F4
S113090000000000000000000000000000000000E3
S1130910000000001818181818181818D8D8D8701B
S1130920000000001E3666C6C6FEC6C6C60000002D
S11309300000FE62607C66666666FC0000000000E3
S1130940FC6666667C666666FC0000000000FE626B
S1130950626060606060F000000000001E36666641
S113096066666666FFC381000000FE66626878689A
S11309706266FE0000000000D6D654547C54D6D6DD
S1130980D600000000007CC606063C0606C67C00B5
S113099000000000C6C6CEDEF6E6C6C6C6000000ED
S11309A03838C6C6CEDEF6E6C6C6C600000000006D
S11309B0E6666C6C786C6C66E600000000001E361F
S11309C066C6C6C6C6C6C60000000000C6EEFEFE69
S11309D0D6C6C6C6C60000000000C6C6C6C6FEC649
S11309E0C6C6C600000000007CC6C6C6C6C6C6C6CB
S11309F07C0000000000FEC6C6C6C6C6C6C6C60049
S1130A0000000000FC6666667C606060F000000028
S1130A1000003C66C2C0C0C0C2663C0000000000CA
S1130A207E5A1818181818183C0000000000C6C692
S1130A30C6C6C67E06C67C000000003C187EDBDB12
S1130A40DBDB7E183C0000000000C6C66C7C387CF2
S1130A506CC6C60000000000CCCCCCCCCCCCCCCC3A
S1130A60FE0606000000C6C6C6C6C67E060606000A
S1130A7000000000DBDBDBDBDBDBDBDBFF0000009B
S1130A800000DBDBDBDBDBDBDBDBFF030300000085
S1130A90F8B0303C363636367C0000000000C3C364
S1130AA0C3F3DBDBDBDBF30000000000F060607C01
S1130AB066666666FC00000000007CC606263E26CC
S1130AC006C67C0000000000CEDBDBDBFBDBDBDBEF
S1130AD0CE00000000003F6666663E3E6666E700A4
S1130AE000000000000000780C7CCCCC76000000F4
S1130AF00002063C60607C6666663C000000000004
S1130B00000000FC667C6666FC000000000000003B
S1130B10007E323030307800000000000000001EFB
S1130B2036366666FFC3C30000000000007CC6FEC4
S1130B30C0C67C0000000000000000D6D67C54D65D
S1130B40D600000000000000003C660C06663C0075
S1130B5000000000000000C6CED6E6C6C6000000B5
S1130B600000003838C6CED6E6C6C6000000000035
S1130B70000000E66C78786CE600000000000000DD
S1130B80001E36666666660000000000000000C6AF
S1130B90EEFED6D6C60000000000000000C6C6FE69
S1130BA0C6C6C600000000000000007CC6C6C6C65B
S1130BB07C0000000000000000FEC6C6C6C6C600D9
S1130BC000000000000000DC666666667C60F000E1
S1130BD000000000007CC6C0C0C67C00000000000D
S1130BE00000007E5A1818183C00000000000000A5
S1130BF000C6C6C6C67E06C67C00000000003C18BF
S1130C007EDBDBDB7E183C000000000000C66C3895
S1130C10386CC60000000000000000CCCCCCCCCC6A
S1130C20FE0606000000000000C6C6C67E060600DA
S1130C3000000000000000D6D6D6D6D6FE00000084
S1130C400000000000D6D6D6D6D6FE03030000006E
S1130C50000000F8B03E33337E00000000000000C6
S1130C6000C6C6F6DEDEF60000000000000000F05C
S1130C70607C6666FC00000000000000003C661E0C
S1130C8006663C0000000000000000CEDBFBDBDB5E
S1130C90CE00000000000000007ECC7C6CCCCE00B6
S1130CA0000090EF83090008AF0B000A000500065E
S1130CB0000700EF0CEE90EF8000B0EF024900EF68
S1130CC0017F81E102E276E283E100EF04EE041B9E
S1130CD0FEFEFEFE90EF044A3F7F04EE0643040A44
S1130CE01018060C1216080E141A050B1119070D0C
S1130CF01317090F151B020840010420101C0203DE
S1130D001C031C1C02021C1C031C03021C006C0B95
S1130D10230C930C11241FBECFE5D8E0DEBFCDBF5A
S1130D2010E0A0E6B0E0E2EAF9E102C005900D921D
S1130D30A037B107D9F722E0A0E7B0E001C01D92C7
S1130D40AE35B207E1F71DE0C4E1DDE004C022974F
S1130D50FE010E94CB0CCE30D107C9F7C29ABA9AD1
S1130D60C49ABC9AC19AB99AC498BD9AC798BF9AB2
S1130D70C69A80E58DB981E08EB9C2988FE19EE470
S1130D800197F1F700C00000C29A8DEF9DEF0E9419
S1130D9096088DEF9DEF0E9496089FEF21E583E072
S1130DA0915020408040E1F700C00000CAECDCE034
S1130DB00EED1CE0FE01859194910E949608229606
S1130DC0C017D107B9F78FE59DE60197F1F700C089
S1130DD00000C2EADCE00AEC1CE0FE01859194917B
S1130DE00E9496082296C017D107B9F79FEF20E713
S1130DF082E0915020408040E1F700C0000081E093
S1130E0090E80E9496088FE19EE40197F1F700C0F4
S1130E10000080E99FEE0E94960880E090E00E9426
S1130E209608BB9AC39889E683BF86E48CBF82B3D5
S1130E308A6482BB81B3857B81BB84B38A7C84BB97
S1130E4084B38A6484BB85B38A6485BB85B38563B4
S1130E5085BB0E9494090C94CF0C0C9400009EBF97
S1130E608DBF29C01F921FB61F920F922F923F92DF
S1130E704F925F926F927F928F929F92AF92BF92A6
S1130E80CF92DF92EF92FF920F931F932F933F9392
S1130E904F935F936F937F938F939F93AF93BF937E
S1130EA0CF93DF93EF93FF93FC018DB79EB78083BD
S1130EB091837EBF6DBFFF91EF91DF91CF91BF9181
S1130EC0AF919F918F917F916F915F914F913F91DE
S1130ED02F911F910F91FF90EF90DF90CF90BF90D3
S1130EE0AF909F908F907F906F905F904F903F90C6
S1130EF02F900F901F901FBE1F900895EF920F9395
S1130F00CF93DF93C82F0E94A608D82F0E94A90868
S1130F1002E9282F4D2F60E080E00E9444090E94DE
S1130F20A608D82F0E94A9082EEC280F4EEC4D0FCE
S1130F300BE769E189E10E9469090E94A608D82F9C
S1130F400E94A908869569EF680F8D2F86950F2E4C
S1130F50F2E9EF2EF02D00EC23E630E044E550E01A
S1130F6084530E945B0800EE2C2F4C2F60E080E03D
S1130F700E9444090E94A6080CE12C2F4C2F60E02B
S1130F808C1B0E9444090E94A908682F6C1B03E073
S1130F902C2F4C2F80E00E944409DF91CF910F91B8
S1130FA0EF90089580E00E94AF0882E00E947E07DF
S1130FB0C2E00E94590B823029F0833051F0813015
S1130FC0C1F70EC0C431A8F7CF5F8C2F0E947E07F3
S1130FD0F0CFC33070F3C1508C2F0E947E07E9CF4D
S1130FE00E94AC08882331F0813039F480E00E94FB
S1130FF0C40803C081E00E94C4088C2F0E947E07AD
S1131000D8CF7F928F929F92AF92BF92CF92DF926E
S1131010EF92FF920F931F93CF93DF93C42F122F5E
S11310202EE048E00E94ED080E94A4086C2F70E0B6
S113103060527109660F771FAB01440F551F440FAF
S1131040551F440F551F461B570BCA018E599F4FFE
S11310507C01FA01E059FF4F6F016894772473F81B
S1131060812C6894992497F8F701A490C72DD82D62
S1131070B92C8B2D8A2121F0812F0E94920803C064
S1131080802F0E949208B6942197209791F79FEFA2
S1131090E91AF90AEC14FD0439F7DF91CF911F9195
S11310A00F91FF90EF90DF90CF90BF90AF909F9003
S11310B08F907F9008959F92AF92BF92CF92DF92CC
S11310C0EF92FF920F931F93CF93DF93B82EA62E28
S11310D06A01E901902EFA0144914423B9F010E029
S11310E0FF24F394EC81FD810E2D292D6A2D812F8F
S11310F08B0D099531E03F0DF601EF0DF11D449183
S11311009881190F442311F0F32EECCFDF91CF9186
S11311101F910F91FF90EF90DF90CF90BF90AF9011
S11311209F9008958FB9779BFECF0895CF93C82FD2
S1131130892F0E9492088C2F0E949208CF910895C3
S1131140C19AC49AC4980895C19808958091620080
S11311500895809161000895809170000895CF935F
S1131160C82F0E94A008C0936000CC2339F0C1307E
S113117049F48CE098EE0E94960804C080E098EE52
S11311800E949608CF910895CF93C82F0E94A0087B
S1131190C0937000CC2389F0C130E9F480E891E079
S11311A00E94960884E095E00E94960880EB809364
S11311B0620084E8809361000EC080E091E00E94A8
S11311C0960880E095E00E94960884E88093620087
S11311D080EB80936100CF910895CF92DF92EF92DC
S11311E0FF920F931F93CF93DF93E82E062FC42E05
S11311F0D22E0E94A00890917000992319F091308A
S1131200D1F039C0F12CC701985F0E94960810E014
S1131210C801965F0E949608C7018C0D911D8150EC
S1131220974F0E949608C8018D0D911D8150954FCE
S11312300E94960820C0F12CC701965F0E94960870
S1131240C0916100D0E0219710E0CE01801B910B8A
S1131250985F0E949608C7018C0D911D8150954F8F
S11312600E9496080D0D111DCE01801B910B8F5FFE
S1131270964F0E949608DF91CF911F910F91FF9096
S1131280EF90DF90CF900895EF92FF920F931F930A
S1131290CF93DF93F42ED22F0E94ED080E94A4086E
S11312A0FF2081F010E0E12C09C0802F0E949208F9
S11312B0CF5FCD13FACF1F5F1F1521F0DD23D9F3C4
S11312C0CE2DF3CFDF91CF911F910F91FF90EF902F
S11312D00895EF92FF920F931F93CF93DF93C82F3C
S11312E0162FF42EE22E21E00E9444092E2D41E017
S11312F0612F8C2F0E9444092E2D41E0612F8C2FE9
S11313008F0D0E944409612F6E0D21E04F2D8C2F0B
S11313100E944409DF91CF911F910F91FF90EF90AC
S113132008950E94D2070895479A85B7806885BFBB
S113133089EF83BD8BE085BD89B7806889BFE09163
S11313405302F0915402808191810E942F07BF9231
S1131350CF92DF92EF92FF920F931F93CF93DF937D
S11313608C017B01BFB6F894CBE5D2E00F2EFDE5EE
S1131370CF2EF2E0DF2EF02D14C0E881F0E0E35E22
S1131380FD4F8081F8019081982B908399818095FD
S113139089238983F60180818111EFCFCE010E94D8
S11313A0320CF8018281803441F3F7012081F80185
S11313B09481E90FF11D25839F5FF80194838F5F6A
S11313C08283903409F41482C80101960E94A40C0B
S11313D0BFBEDF91CF911F910F91FF90EF90DF90EF
S11313E0CF90BF9008951F92CDB7DEB700E0F12CE7
S11313F0E12C00B2112D03FA11F901FA10F9EF2DC5
S1131400F0E084E0189FE00DF11D1124E350F34F48
S1131410E491E983EC3171F00F5F043051F4BE01C3
S11314206F5F7F4F81E790E00E94A709F12E0E2D98
S113143001C0F12E82E090E00E946E0CDACFCDB7AD
S1131440DEB727970FB6F894DEBF0FBECDBF85E396
S11314508D838E838F836894772476F84424439411
S1131460512C612C852C962C76FC03C0869945C0A2
S113147002C0869B4EC0CE0105967C01052D162D1B
S1131480A801F801EA50F34F6F01849125B390E06D
S11314908095909530E08223932385BB5701F70113
S11314A06081882D992D9C01FC01E750F34F7491C4
S11314B0762309F04CC073B3A4917A2309F447C08E
S11314C032C073B3E4917E2309F05AC045C083B39C
S11314D0F5018083FFEFEF1AFF0AF601C49085B38C
S11314E0C82AC5BA0F5F1F4F0330110509F0C8CFD2
S11314F081E290E00E946E0CB7CF4C82BE016C5F1B
S11315007F4F81E790E00E94A70970B276FEB3CFC7
S1131510B0CF1B82BE016D5F7F4F81E790E00E94D8
S1131520A70970B2A8CFFA01EE0FFF1FEE0FFF1F3D
S11315302E0F3F1FF901E651F34FE491EA83BE01F8
S11315406E5F7F4F81E790E00E94A709C0CF74913E
S1131550762309F0B6CF14C0FA01EE0FFF1FEE0F89
S1131560FF1F2E0F3F1FF901E252F34FE491E9836D
S1131570BE016F5F7F4F81E790E00E94A709A7CF6C
S113158001968430910509F08ECFA1CFFC019081A2
S1131590992379F02181DF01A20FB11D13968C915B
S11315A0915090832F5F203411F02183089511828C
S11315B008958181E80FF11D83810895BF92CF9230
S11315C0DF92EF92FF920F931F93CF93DF93EC017F
S11315D07B01BFB6F8948A81882359F0CE01029624
S11315E00E94C60AD7018C93CE010E94A40C81E00C
S11315F04FC0E0915B02F0E0EE0FFF1FED5AFD4F8C
S11316000190F081E02D538342830BE512E00F2E0D
S1131610FDE5CF2EF2E0DF2EF02DD801EC91F0E0C5
S1131620E35EFD4F80819981982B998311969C915B
S113163011978095892311968C93F60180818111ED
S113164003C0C8010E94320CD8018C9190E0FC01C7
S1131650E35EFD4F30812981422F4323D9F0309539
S11316602323298380E014C0FC01EE0FFF1FED5AF1
S1131670FD4F0190F081E02D13821282CE0102967B
S11316800E94C60AF7018083CE010E94A40C81E067
S1131690BFBE05C02A81222309F4BFCFE5CFDF9165
S11316A0CF911F910F91FF90EF90DF90CF90BF905B
S11316B00895CF93DF931F92CDB7DEB740E050E09B
S11316C0BE016F5F7F4F81E790E00E94DE0A89814F
S11316D00F90DF91CF91089523EF39E040E06DE161
S11316E072E080EF91E00E945E0C2FE13AE041E06D
S11316F060EF71E08BEB91E00E945E0C21E939E030
S113170042E06BEB71E086EB90E00E945E0C10927D
S11317107100109272001092730010927400109273
S113172075000895FB0131974083319750833197B9
S11317301082319720E8208364527109FC0171837F
S1131740608308951F920F920FB60F9211242F9366
S11317503F934F935F936F937F938F939F93AF9335
S1131760BF93CF93DF93EF93FF93EDE5F2E0808196
S11317708F5F8083E3E5F2E029E532E0CBE5D2E058
S1131780A191B19112968D919C911397892BA1F0FF
S113179012968D919C911397019713969C938E9317
S11317A01297892B49F499811496AC91B0E0A35E09
S11317B0BD4F8C91892B8983E217F30709F7F894BD
S11317C0EDE5F2E0808181508083811129C0909100
S11317D05C0290FD0AC020E02F5F892F90E0959570
S11317E08795982F80FFF8CF01C020E0E0915B023D
S11317F02E17B1F0A22FB0E0AA0FBB1FAD5ABD4FF8
S11318000D90BC91A02D6D917C91F0E0EE0FFF1F27
S1131810ED5AFD4F8081918120935B020E94320733
S1131820FF91EF91DF91CF91BF91AF919F918F91F4
S11318307F916F915F914F913F912F910F900FBEC8
S11318400F901F90189581E080931D0282E0809391
S11318501E0284E080931F0288E080932002089592
S11318608895FECFCF93DF93FC01818180FD0AC070
S113187040E04F5F282F30E035952795822F20FFD9
S1131880F8CF01C040E0A081A417A9F0C42FD0E094
S1131890CC0FDD1FCD5ADD4F0990D881C02D688152
S11318A07981B0E0AA0FBB1FAD5ABD4F8D919C91B9
S11318B040830E943207DF91CF910895FC01138287
S11318C012824483E42FF0E0EE0FFF1FED5AFD4F28
S11318D091838083A9010E94920B0895CF93CFB77F
S11318E0F894EBE5F2E0208130E0D901AA0FBB1FA8
S11318F0AD5ABD4F0D90BC91A02D13969C938E9321
S113190012979181D901A35EBD4F8C918095892353
S1131910818380915D02811103C0CF010E94320C4A
S1131920CFBFCF91089510925B028FE080935C0249
S113193010925D0220E33CE043E063E572E081E263
S113194092E00E945E0C0895EBE5F2E07181FC01E7
S11319506081462F50E0272F30E0209530952423D6
S11319603523232B91F0EBE5F2E02181262B218313
S11319706723FC01608380915D02811108C08BE5BF
S113198092E00E94320C81E0089580E0089581E0A5
S11319900895EE0FFF1F0590F491E02D0994F8943B
S10519A0FFCF73
S11319A201B084080E62000108000000000000007B
S9030000FC
