S00C0000746573742E7372656358
S11300000C94B1070C944E080C944E080C944E08B2
S11300100C94F90E0C944E080C944E080C944E0853
S11300200C944E080C944E080C944E080C944E08F4
S11300300C944E080C944E080C944E080C944E08E4
S11300400C944E080C944E080C944E080C944E08D4
S11300500C944E08CFF0E8E2E5F22C20ECE8F02115
S11300600048656C6C6F2C20776F726C6421000003
S113007000000000000000005F0000000003000317
S113008000227F22227F2200242A6B2A12002313BB
S1130090086462003A45453A280000000201000065
S11300A0003E4100000000413E0000002A1C1C2AC2
S11300B0000008083E08080000804000000008080E
S11300C0080800000000400000002010080402009E
S11300D03E5149453E0000427F400000625151516B
S11300E04E00214145453B001816117F100027455D
S11300F0454539003E49494932000161110907006B
S1130100364949493600264949493E000000120053
S11301100000002012000000081422410000141402
S113012014141400412214080000060151090600A9
S11301303E414D4D2E007816111678007F494949ED
S113014036003E41414122007F4141413E007F490A
S1130150494941007F09090901003E4141513200EA
S11301607F0808087F0000417F4100003040414182
S11301703F007F08081463007F40404060007F0414
S113018018047F007F0408107F003E4141413E0077
S11301907F09090906003E4161215E007F090919B2
S11301A0660026494949320001017F0101003F40B0
S11301B040403F000718601807001F6018601F00C8
S11301C0631408146300030478040300615149456F
S11301D04300007F41000000020408102000004199
S11301E07F0000000000000000404040404040000C
S11301F00000010200002054545478007E4848480E
S11302003000384444442800304848487E0038547C
S113021054541800107C120204000C52523C020088
S11302207E0808087000000074000000408080749C
S113023000007E1010106C0000027E0000007C04A0
S1130240780478007C04040478003844444438007A
S1130250FC242424180018242424FC007C0804040E
S11302600800485454542000083E484000003C40D4
S113027040403C001C2040201C003C4030403C00DE
S11302804428102844001C20A0A07C004464544C42
S1130290440008364100000000007F0000000041D7
S11302A0360800020101020201007F7F7F7F7F0088
S11302B00000000000000000000000000000001822
S11302C03C3C3C18180018180000000066666624C0
S11302D000000000000000000000006C6CFE6C6C6C
S11302E06CFE6C6C00000018187CC6C2C07C0686CC
S11302F0C67C18180000000000C2C60C183066C680
S11303000000000000386C6C3876DCCCCC76000041
S113031000003030306000000000000000000000E9
S1130320000C183030303030180C00000000003061
S1130330180C0C0C0C0C18300000000000000066B7
S11303403CFF3C6600000000000000000018187E1E
S11303501818000000000000000000000000001851
S11303601818300000000000000000FE000000002B
S11303700000000000000000000000001818000049
S113038000000002060C183060C08000000000006D
S1130390007CC6CEDEF6E6C6C67C0000000000186F
S11303A0387818181818187E00000000007CC6065B
S11303B00C183060C6FE00000000007CC606063C37
S11303C00606C67C00000000000C1C3C6CCCFE0C35
S11303D00C1E0000000000FEC0C0C0FC0606C67C67
S11303E000000000003860C0C0FCC6C6C67C000027
S11303F0000000FEC6060C1830303030000000004B
S1130400007CC6C6C67CC6C6C67C00000000007C54
S1130410C6C6C67E06060C78000000000000181848
S11304200000001818000000000000001818000068
S1130430001818300000000000060C183060301856
S11304400C0600000000000000007E00007E00009A
S113045000000000006030180C060C18306000002A
S11304600000007CC6C60C18180018180000000014
S1130470007CC6C6DEDEDEDCC07C000000000010AE
S1130480386CC6C6FEC6C6C60000000000FC666620
S1130490667C666666FC00000000003C66C2C0C064
S11304A0C0C2663C0000000000F86C6666666666C2
S11304B06CF80000000000FE66626878686266FE00
S11304C00000000000FE66626878686060F000006A
S11304D00000003C66C2C0C0DEC6663A00000000F0
S11304E000C6C6C6C6FEC6C6C6C600000000003C9E
S11304F0181818181818183C00000000001E0C0CDE
S11305000C0C0CCCCC780000000000E6666C6C7817
S11305106C6C66E60000000000F060606060606281
S113052066FE0000000000C6EEFEFED6C6C6C6C6C5
S11305300000000000C6E6F6FEDECEC6C6C6000019
S1130540000000386CC6C6C6C6C66C380000000081
S113055000FC6666667C606060F000000000007C61
S1130560C6C6C6C6D6DE7C0C0E00000000FC66665D
S1130570667C6C6666E600000000007CC6C66038D7
S11305800CC6C67C00000000007E7E5A181818189D
S1130590183C0000000000C6C6C6C6C6C6C6C67C57
S11305A00000000000C6C6C6C6C6C66C38100000EF
S11305B0000000C6C6C6C6D6D6FE7C6C000000008D
S11305C000C6C66C3838386CC6C600000000006629
S11305D06666663C1818183C0000000000FEC68CD5
S11305E0183060C2C6FE00000000003C30303030DD
S11305F03030303C000000000080C0E070381C0E39
S1130600060200000000003C0C0C0C0C0C0C0C3C12
S113061000000010386CC60000000000000000005C
S113062000000000000000000000000000FF003097
S1130630301800000000000000000000000000006E
S11306400000780C7CCCCC760000000000E06060F8
S1130650786C6666667C00000000000000007CC6C2
S1130660C0C0C67C00000000001C0C0C3C6CCCCC50
S1130670CC7600000000000000007CC6FEC0C67CF2
S11306800000000000386C6460F0606060F00000FE
S113069000000000000076CCCCCC7C0CCC780000B0
S11306A000E060606C76666666E600000000001894
S11306B0180038181818183C00000000000606003E
S11306C00E0606060666663C000000E06060666C86
S11306D0786C66E60000000000381818181818181E
S11306E0183C0000000000000000ECFED6D6D6C680
S11306F00000000000000000DC666666666600001C
S11307000000000000007CC6C6C6C67C00000000D5
S113071000000000DC6666667C6060F0000000009B
S1130720000076CCCCCC7C0C0C1E00000000000039
S1130730DC76666060F000000000000000007CC60B
S1130740701CC67C0000000000103030FC303030DB
S1130750361C0000000000000000CCCCCCCCCC76D1
S11307600000000000000000666666663C18000099
S1130770000000000000C6C6D6D6FE6C00000000D3
S113078000000000C66C38386CC600000000000091
S11307900000C6C6C6C67E060CF8000000000000B5
S11307A0FECC183066FE00000000000E1818187009
S11307B01818180E0000000000181818180018184F
S11307C018180000000000701818180E1818187077
S11307D0000000000076DC000000000000000000C3
S11307E00000000000000000000042427E00000003
S11307F000000000000000000000000000000000F5
S113080000000000000000000000000000000000E4
S113081000000000000000000000000000000000D4
S113082000000000000000000000000000000000C4
S113083000000000000000000000000000000000B4
S113084000000000000000000000000000000000A4
S11308500000000000000000000000000000000094
S11308600000000000000000000000000000000084
S11308700000000000000000000000000000000074
S11308800000000000000000000000000000000064
S11308900000000000000000000000000000000054
S11308A00000000000000000000000000000000044
S11308B00000000000000000000000000000000034
S11308C00000000000000000000000000000000024
S11308D00000000000000000000000000000000014
S11308E00000000000000000000000000000000004
S11308F000000000000000000000000000000000F4
S113090000000000000000000000000000000000E3
S113091000000000000000000000000018180000A3
S113092000000000000000000000000000000000C3
S113093000000000000000000000000000000000B3
S113094000000000000000000000000000000000A3
S11309500000000000000000000000000000000093
S11309600000000000000000000000000000000083
S11309700000000000000000000000000000000073
S11309800000000000000000000000000000000063
S11309900000000000000000000000000000000053
S11309A00000000000000000000000000000000043
S11309B00000000000000000000000000000000033
S11309C0001818007E001818000000000000000045
S11309D076DC0076DC00000000000000000000006F
S11309E0000000000000000070D83060C8F800006B
S11309F000000000000000000000000000000000F3
S1130A0000000000000000000000000000000000E2
S1130A1000000000000000000000000000000000D2
S1130A20000000FE0000FE0000FE000000000000C8
S1130A30000000000000000000000000000030186A
S1130A400C060C1830007E000000000000000000BE
S1130A500000000000000000000000000000000092
S1130A600000000000000000000000000000000082
S1130A700000000000000000000000000000000072
S1130A800000000E1B1B1818181818181818180046
S1130A90386C6C380000000000000000000000000A
S1130AA00000000000000000000000000000000042
S1130AB00000000000000000000000000000000032
S1130AC00000000000000000000000000000000022
S1130AD00000000000000000000000000000000012
S1130AE00000000000000000000000000000000002
S1130AF000000000000000000018000000000000DA
S1130B0000000018187E18180000FF000000000004
S1130B103C4299A5A1A599423C00000000000C1894
S1130B20306030180C007E0000000000000000005F
S1130B3000000000000000000000000000000000B1
S1130B4000000000000000000000000000000000A1
S1130B500000000000000000000000000000000091
S1130B60001818181818181818D8D8D870000000C9
S1130B70001E3666C6C6FEC6C6C60000000000FEDD
S1130B8062607C66666666FC0000000000FC6666C7
S1130B90667C666666FC0000000000FE62626060BF
S1130BA0606060F000000000001E366666666666DF
S1130BB066FFC381000000FE66626878686266FEB4
S1130BC00000000000D6D654547C54D6D6D600007B
S1130BD00000007CC606063C0606C67C0000000039
S1130BE000C6C6CEDEF6E6C6C6C60000003838C665
S1130BF0C6CEDEF6E6C6C6C60000000000E6666C99
S1130C006C786C6C66E600000000001E3666C6C692
S1130C10C6C6C6C60000000000C6EEFEFED6C6C6A6
S1130C20C6C60000000000C6C6C6C6FEC6C6C6C606
S1130C3000000000007CC6C6C6C6C6C6C67C00004E
S1130C40000000FEC6C6C6C6C6C6C6C60000000072
S1130C5000FC6666667C606060F000000000003C9A
S1130C6066C2C0C0C0C2663C00000000007E5A18C4
S1130C7018181818183C0000000000C6C6C6C6C6DE
S1130C807E06C67C000000003C187EDBDBDBDB7EDE
S1130C90183C0000000000C6C66C7C387C6CC6C6DC
S1130CA00000000000CCCCCCCCCCCCCCCCFE0606D6
S1130CB0000000C6C6C6C6C67E06060600000000C2
S1130CC000DBDBDBDBDBDBDBDBFF0000000000DB6E
S1130CD0DBDBDBDBDBDBDBFF0303000000F8B03036
S1130CE03C363636367C0000000000C3C3C3F3DB59
S1130CF0DBDBDBF30000000000F060607C6666660E
S1130D0066FC00000000007CC606263E2606C67C63
S1130D100000000000CEDBDBDBFBDBDBDBCE000016
S1130D200000003F6666663E3E6666E7000000001F
S1130D3000000000780C7CCCCC7600000000020699
S1130D403C60607C6666663C0000000000000000B9
S1130D50FC667C6666FC00000000000000007E3239
S1130D603030307800000000000000001E36366687
S1130D7066FFC3C30000000000007CC6FEC0C67C42
S1130D800000000000000000D6D67C54D6D6000037
S1130D900000000000003C660C06663C00000000F9
S1130DA000000000C6CED6E6C6C600000000000063
S1130DB03838C6CED6E6C6C60000000000000000E3
S1130DC0E66C78786CE600000000000000001E3637
S1130DD0666666660000000000000000C6EEFED6EF
S1130DE0D6C60000000000000000C6C6FEC6C6C687
S1130DF000000000000000007CC6C6C6C67C0000DF
S1130E00000000000000FEC6C6C6C6C60000000002
S1130E1000000000DC666666667C60F0000000008E
S1130E2000007CC6C0C0C67C0000000000000000BA
S1130E307E5A1818183C0000000000000000C6C6C6
S1130E40C6C67E06C67C00000000003C187EDBDBC4
S1130E50DB7E183C000000000000C66C38386CC60D
S1130E600000000000000000CCCCCCCCCCFE060678
S1130E70000000000000C6C6C67E06060000000092
S1130E8000000000D6D6D6D6D6FE00000000000032
S1130E900000D6D6D6D6D6FE03030000000000001C
S1130EA0F8B03E33337E0000000000000000C6C6E8
S1130EB0F6DEDEF60000000000000000F0607C6654
S1130EC066FC00000000000000003C661E06663C54
S1130ED00000000000000000CEDBFBDBDBCE0000E6
S1130EE00000000000007ECC7C6CCCCE00000090A2
S1130EF0EF83090008AF0B000A0005000600070095
S1130F00EF0CEE90EF8000B0EF024900EF017F811B
S1130F10E102E276E283E100EF04EE041BFEFEFE52
S1130F20FE90EF044A3F7F04EE0643040A101806BD
S1130F300C1216080E141A050B1119070D131709B4
S1130F400F151B020840010420101C02031C031C83
S1130F501C02021C1C031C03021C760CBF0E670F30
S1130F60D00F11241FBECFE5D8E0DEBFCDBF10E007
S1130F70A0E6B0E0EAEFF0E202C005900D92A237DD
S1130F80B107D9F722E0A2E7B0E001C01D92A13A6F
S1130F90B207E1F71FE0C2E6DFE004C02297FE01DA
S1130FA00E947710CA35D107C9F787B38E6B87BB08
S1130FB088B3866588BB88B3837688BB80E58DB9A2
S1130FC081E08EB98FE19EE40197F1F700C0000043
S1130FD0C29A8DEF9DEF0E94620B8DEF9DEF0E94F0
S1130FE0620B9FEF21E583E0915020408040E1F7C0
S1130FF000C00000C7E1DFE0FE01859194910E94EA
S1131000620B22969FE0CB32D907B1F78FE59DE6BC
S11310100197F1F700C00000CFEEDEE0FE018591FC
S113102094910E94620B22969FE0C731D907B1F7D1
S11310302FEF80E792E0215080409040E1F700C01C
S1131040000081E090E80E94620B8FE19EE401972A
S1131050F1F700C0000080E99FEE0E94620B80E07F
S113106090E00E94620B89E683BF809160008CBF90
S113107082B38A6482BB81B3857B81BB84B38A7C5F
S113108084BB84B38A6484BB85B38A6485BB85B31B
S1131090856385BB0E94870C0C947B100C94000024
S11310A09EBF8DBF29C01F921FB61F920F922F9211
S11310B03F924F925F926F927F928F929F92AF92E4
S11310C0BF92CF92DF92EF92FF920F931F932F93D1
S11310D03F934F935F936F937F938F939F93AF93BC
S11310E0BF93CF93DF93EF93FF93FC018DB79EB72C
S11310F0808391837EBF6DBFFF91EF91DF91CF918C
S1131100BF91AF919F918F917F916F915F914F911B
S11311103F912F911F910F91FF90EF90DF90CF900F
S1131120BF90AF909F908F907F906F905F904F9003
S11311303F902F900F901F901FBE1F900895EF9225
S11311400F931F93CF93DF931F92CDB7DEB7182F62
S11311500E94710B89830E94740B02E9282F498134
S113116060E080E00E94220C0E94710B082F0E9414
S1131170740B2EEC280F4EEC400F0BE769E189E16C
S11311800E94400C0E94710B082F0E94740B2AEBE2
S1131190280F4AEB400F0CE663E283E20E94400C06
S11311A00E94710B082F0E94740B682F6695615181
S11311B0802F869592E9E92E00EC2BE630E044E599
S11311C050E080530E94C50A0E94710B082F0E94B0
S11311D0740B682F66956952802F869503E02BE681
S11311E030E044E550E080530E94FD0A0E94710BF8
S11311F0082F0E94740B682F66956A5F802F86956E
S113120000EC25E630E041E650E087520E94C50A32
S11312100E94710B082F0E94740B682F6695685EFC
S1131220802F869503E025E630E041E650E08752C2
S11312300E94FD0A00EE212F412F60E080E00E9411
S1131240220C0E94710B0CE1212F412F60E0811BC5
S11312500E94220C0E94740B682F611B03E0212F53
S1131260412F80E00E94220C0F90DF91CF911F91BB
S11312700F91EF90089580E00E947A0B82E00E9423
S11312809F08C2E00E94500D8230A1F08330C9F063
S11312908130C1F70E94770B8823D1F0813019F493
S11312A080E00E94970B8C2F0E949F080E94500D93
S11312B0823061F7C43130F7CF5F8C2F0E949F08D2
S11312C0E1CFC230F9F2C1508C2F0E949F08DACFCF
S11312D081E00E94970BE7CF7F928F929F92AF920B
S11312E0BF92CF92DF92EF92FF920F931F93CF930F
S11312F0DF9300D000D000D0CDB7DEB7122F50E07E
S11313004052510996E0949F7001959FF00C11246E
S1131310970121593F4F790128E046E00E94C50B0F
S11313200E946F0BDE0111965E0137E0A30EB11C23
S11313304D01EA1AFB0AF701EA0FFB1FE491ED9352
S1131340AA15BB05C1F788E0C82ED12C7724739465
S11313507401F70181917F01872111F0812F01C070
S1131360802F0E945E0BEA14FB0499F7770CF1E0DE
S1131370CF1AD108C114D10459F726960FB6F894A0
S1131380DEBF0FBECDBFDF91CF911F910F91FF90B4
S1131390EF90DF90CF90BF90AF909F908F907F9011
S11313A008958F929F92AF92BF92CF92DF92EF9265
S11313B0FF920F931F93CF93DF93CDB7DEB7279799
S11313C00FB6F894DEBF0FBECDBFB82EC62EE42FE5
S11313D0F0E0B09786E08E9F80018F9F100D11245E
S11313E001591F4FDE0111967E0187E0E80EF11CC2
S11313F04D010A1B1B0BF801EA0FFB1FE491ED934F
S1131400AE15BF05C1F7F12CDD24D3948401E12C82
S1131410AF2CAC0CF80191918F019D2141F0422F2A
S11314206A2D8E2D8B0D2F830E946A0C2F81E394DD
S1131430F6E0EF12EFCFDD0CF39488E0F812E6CF7C
S113144027960FB6F894DEBF0FBECDBFDF91CF91C4
S11314501F910F91FF90EF90DF90CF90BF90AF90CE
S11314609F908F900895AF92BF92CF92DF92EF92A8
S1131470FF920F931F93CF93DF93C22EB02E50E0B1
S1131480405251099EE0949F8001959F100D1124B4
S113149001551D4F2EE048E00E94C50B0E946F0BC2
S11314A0C0E0D0E0FE01E00FF11FA49088E0E82E38
S11314B0F12C90E8D92E8D2D8A2111F08C2D01C0AC
S11314C08B2D0E945E0BD69481E0E81AF108E1149A
S11314D0F10489F72196CE30D10521F7DF91CF9120
S11314E01F910F91FF90EF90DF90CF90BF90AF903E
S11314F008958F929F92AF92BF92CF92DF92EF9214
S1131500FF920F931F93CF93DF931F92CDB7DEB754
S1131510D82EC62EE42FF0E0B0978EE08E9F800187
S11315208F9F100D112401551D4F812C912CF40116
S1131530E00FF11FB490F12C30E8E32EA82CAC0C92
S11315408E2D8B2141F0422F6A2D8F2D8D0D2983F5
S11315500E946A0C2981E694F39488E0F812F0CF93
S1131560EFEF8E1A9E0AFEE08F16910401F70F909A
S1131570DF91CF911F910F91FF90EF90DF90CF906B
S1131580BF90AF909F908F9008959F92AF92BF921B
S1131590CF92DF92EF92FF920F931F93CF93DF933B
S11315A0B82EA62EEA016901902EFA014491F12C7D
S11315B011E04423B1F0D6011296ED91FC911397FA
S11315C00E2D292D6A2D8F2D8B0D099581E0810F0C
S11315D0FE01E10FF11D4491F6019081F90E182FDF
S11315E0E8CFDF91CF911F910F91FF90EF90DF90A3
S11315F0CF90BF90AF909F900895BF92CF92DF920B
S1131600EF92FF920F931F93CF93DF93C82EB62EC2
S1131610EA017901FA014491D12C11E04423A9F0A3
S1131620D7011496ED91FC911597202F6B2D8D2DDC
S11316308C0D099581E0810FFE01E10FF11D4491AC
S1131640F7019081D90E182FE9CFDF91CF911F9127
S11316500F91FF90EF90DF90CF90BF900895C0E07E
S1131660D9E660ED77E087EA90E00E9402108823D3
S113167011F0C0E0F6CFCF5F80916100C813F1CFC5
S11316808CB7882379F08CB781508CBF6CE070E004
S113169087EA90E00E940210882391F38091600011
S11316A08CBFE7CF13BE60E070E087EA90E00E9451
S11316B00210809160008CBFD3BFDBCF8FB9779BC2
S11316C0FECF0895CF93C82F892F0E945E0B8C2FD5
S11316D0CF910C945E0BC19AC49AC4980895C19892
S11316E00895809164000895809163000895809125
S11316F0A6000895CF93DF931F92CDB7DEB78983F9
S11317000E946B0B898180936200882329F08130C9
S113171051F48CE098EE02C080E098EE0F90DF91D7
S1131720CF910C94620B0F90DF91CF910895CF93DA
S1131730DF931F92CDB7DEB789830E946B0B89813B
S11317408093A600882379F08130D9F480E891E071
S11317500E94620B84E095E00E94620B80EB809310
S1131760640084E80CC080E091E00E94620B80E099
S113177095E00E94620B84E88093640080EB809380
S113178063000F90DF91CF910895CF92DF92EF9293
S1131790FF920F931F93CF93DF93E82E062FC42E4F
S11317A0D22E0E946B0B8091A600882311F1813008
S11317B009F03FC0F12CC701965F0E94620BC091F3
S11317C06300D0E0219710E0CE01801B910B985F5D
S11317D00E94620BC7018C0D911D8150954F0E9490
S11317E0620B0D0D111DCE01801B910B8F5F964F67
S11317F016C0F12CC701985F0E94620B10E0C8016B
S1131800965F0E94620BC7018C0D911D8150974F0A
S11318100E94620BC8018D0D911D8150954FDF917F
S1131820CF911F910F91FF90EF90DF90CF900C9488
S1131830620BDF91CF911F910F91FF90EF90DF909A
S1131840CF900895FF920F931F93CF93DF93142F9C
S1131850F22E0E94C50B0E946F0BD0E0D11751F0FD
S1131860C0E0CF1529F0802F0E945E0BCF5FF9CF27
S1131870DF5FF4CFDF91CF911F910F91FF90089517
S1131880EF92FF920F931F93CF93DF93C82F162FDE
S1131890E42EF22E21E00E94220C2F2D41E0612F34
S11318A08C2F0E94220C8FEF8E0D2F2D41E0612F83
S11318B08C0F0E94220C6FEF6F0D610F21E04E2DF3
S11318C08C2F0E94220CDF91CF911F910F91FF90DA
S11318D0EF900895CF93C42F21E041E00E94C50BFF
S11318E00E946F0B8C2FCF910C945E0B2FE23BE088
S11318F042E066EA70E082E790E00C949A0F0E945E
S11319003B0908952FB7FC012083F8940895479A62
S113191085B7806885BF89EF83BD8BE085BD89B7B6
S1131920806889BFE0919402F09195028081918151
S11319300E945008CF92DF92EF92FF920F931F9371
S1131940CF93DF931F92CDB7DEB78C017B016A0181
S1131950CE0101960E94820CD80112969C91129796
S1131960992391F013968C91F801E80FF11D2581CC
S11319709150F80192838F5F803411F0838301C00A
S11319801382F701208374C0E0919E02F0E0EE0F11
S1131990FF1FEC56FD4F0190F081E02DD382C282EF
S11319A06801FFEFCF1ADF0AE0919E02F0E0DF0149
S11319B0A55ABD4F8C91D80111969C911197982BE3
S11319C011969C9390919F028095892380939F0206
S11319D0EE0FFF1FEC56FD4F0190F081E02DD682F3
S11319E0C5828091A002811104C08EE992E00E9418
S11319F0730F80919E0290E0FC01EE0FFF1FEC56E6
S1131A00FD4FA081B18116961C921E921597DC01A0
S1131A10A55ABD4F8C91D80111969C911197292FED
S1131A20282331F08095892311968C9380E024C07B
S1131A30D80112968C91882309F4B6CF0190F081D5
S1131A40E02D13821282F80192818381992319F186
S1131A50E80FF11D25819150D80112969C9312979D
S1131A608F5F8034A9F013968C93822FD7018C93C7
S1131A70C8010E94E00F81E099819FBF0F90DF9120
S1131A80CF911F910F91FF90EF90DF90CF90089529
S1131A90F8011382EACFF801E80FF11D8581E6CF42
S1131AA0CF93DF931F92CDB7DEB740E050E0BE0185
S1131AB06F5F7F4F89EA90E00E949A0C89810F90B2
S1131AC0DF91CF910895EF92FF920F931F93CF93DD
S1131AD0DF931F92CDB7DEB78C017B01CE01019657
S1131AE00E94820CF8019281903489F5E0919E0263
S1131AF0F0E0E55AFD4F8081F8019081982B9083A6
S1131B0090919F028095892380939F02E0919E0289
S1131B10F0E0EE0FFF1FEC56FD4F0190F081E02D39
S1131B20168305838091A002811104C08EE992E09E
S1131B300E94730FE0919E02F0E0EE0FFF1FEC563F
S1131B40FD4F0190F081E02D16821582CBCFF70175
S1131B502081F8018481E80FF11D25838F5FF8014E
S1131B6084839F5F9283803409F41482C8010196B0
S1131B700E94E00F89818FBF0F90DF91CF911F9159
S1131B800F91FF90EF90089500D0CDB7DEB710E02D
S1131B9080E0FF24F39400B2012D03FA01F901FA65
S1131BA000F994E0099FF0011124E80FF11DE65BB0
S1131BB0F04FE491EA83EC31D1F01F5F1430C1F4AB
S1131BC0CE0101960E94820C87EA90E00E94E00F09
S1131BD0811102C0F092A80089818FBFBE016E5F9F
S1131BE07F4F89EA90E00E94630D10E001C0082F46
S1131BF082E090E00E94AB0F802FCDCF00D000D0C8
S1131C00CDB7DEB785E389838A838B83B0E48B2EDB
S1131C109924939486FC19C0869B17C0CE01049620
S1131C200E94820C87EA90E00E94E00F811102C0BA
S1131C309092A8008C818FBF9C82BE016C5F7F4F05
S1131C4089EA90E00E94630D80B286FE19C08699ED
S1131C5017C0CE0104960E94820C87EA90E00E948D
S1131C60E00F811102C09092A8008C818FBF1C826A
S1131C70BE016C5F7F4F89EA90E00E94630D80B2E1
S1131C80CE0101966C0100E010E0F801ED5BF04F2D
S1131C905F01849125B390E08095909530E0822394
S1131CA0932385BBF6019081E12CF12CF701EA5BCB
S1131CB0F04F84918923F1F423B384918223D1F0EA
S1131CC0CE0104960E94820C87EA90E00E94E00F05
S1131CD0811102C09092A8008C818FBFF801EE0F91
S1131CE0FF1FEE0FFF1FEE0DFF1DE95CF04FE491A7
S1131CF0EC8321C08491892309F438C083B3E4912F
S1131D00E823A1F5CE0104960E94820C87EA90E0B4
S1131D100E94E00F811102C09092A8008C818FBFB5
S1131D20F801EE0FFF1FEE0FFF1FEE0DFF1DE55D27
S1131D30F04F84918C83BE016C5F7F4F89EA90E001
S1131D400E94630D83B3F60181936F01F501A490A2
S1131D5085B3A82AA5BA0F5F1F4F0330110509F0F8
S1131D6094CF81E290E00E94AB0F54CFFFEFEF1AC3
S1131D70FF0A84E0E816F10409F098CFE3CF24ECDD
S1131D803DE040E06BE572E08CE292E00E949A0F45
S1131D902EEF3DE041E06CE272E085EF91E00E94BD
S1131DA09A0F2FE73CE043E065EF71E08EEE90E0A0
S1131DB00E949A0F1092A9001092AA001092AB00F0
S1131DC01092AC001092AD001092A7001092A800DF
S1131DD00895FB01319740833197508331971082E6
S1131DE0319720E8208364527109FC017183608378
S1131DF008951F920F920FB60F9211242F933F93C1
S1131E004F935F936F937F938F939F93AF93BF93FE
S1131E10EF93FF938091A0028F5F8093A002A4E9C7
S1131E20B2E0ED91FD9182819381892B89F08281C9
S1131E309381019793838283892B51F480919F022C
S1131E40E481F0E0E55AFD4F9081892B80939F0255
S1131E5082E0AC39B80729F7F8948091A002815048
S1131E608093A002811122C080919F0220E080FD16
S1131E7003C02F5F8695FBCFE0919E022E17B1F031
S1131E80A22FB0E0AA0FBB1FAC56BD4F0D90BC9162
S1131E90A02D6D917C91F0E0EE0FFF1FEC56FD4FED
S1131EA08081918120939E020E945308FF91EF91BB
S1131EB0BF91AF919F918F917F916F915F914F915E
S1131EC03F912F910F900FBE0F901F901895EBE547
S1131ED0F2E081E08193880F92E0E036F907D1F7D0
S1131EE008958895FECFCF93DF93EC01898120E09C
S1131EF080FD03C02F5F8695FBCFE8812E17B9F0D4
S1131F00A22FB0E0AA0FBB1FAC56BD4F0D90BC91E1
S1131F10A02D6D917C91F0E0EE0FFF1FEC56FD4F6C
S1131F20808191812883DF91CF910C945308DF91B4
S1131F30CF910895FC011382128244831682158284
S1131F40E42FF0E0EE0FFF1FEC56FD4F91838083EA
S1131F50A9010C94E90ECF93CFB7F89420919E0277
S1131F6030E0F901EE0FFF1FEC56FD4F0190F081B8
S1131F70E02D9383828390919F02F901E55AFD4FEE
S1131F8080818095892380939F028091A002811192
S1131F9004C08EE992E00E94730FCFBFCF910895E1
S1131FA010929E028FE180939F021092A00221E77B
S1131FB03FE044E064E972E080E692E00C949A0F1A
S1131FC070919F02FC016081262F30E0472F50E082
S1131FD04095509524233523232B81F020919F0293
S1131FE0262B20939F02672360838091A002811196
S1131FF007C08EE992E00E94730F02C080E008954A
S113200081E00895EF92FF920F931F93CF93DF9394
S11320101F92CDB7DEB78C017B01CE0101960E94E1
S1132020820CD80111968C911197882319F011967E
S11320301C9259C080919E0290E0FC01EE0FFF1F9C
S1132040EC56FD4F0190F081E02DF382E282FC0119
S1132050E55AFD4F8081F8019081982B90839091EF
S11320609F028095892380939F02E0919E02F0E075
S1132070EE0FFF1FEC56FD4F0190F081E02D16830B
S113208005838091A002811104C08EE992E00E9430
S1132090730F80919E0290E0FC01EE0FFF1FEC563F
S11320A0FD4FA081B18116961C921E921597DC01FA
S11320B0A55ABD4F8C91D8019C91292F282371F0EA
S11320C0809589238C9380E099819FBF0F90DF9145
S11320D0CF911F910F91FF90EF9008950190F0819F
S11320E0E02D1382128281E0EFCFEE0FFF1F0590E7
S10D20F0F491E02D0994F894FFCF59
S11320FAB41E01B08406086C09D109080E330A79A2
S105210A0A00C5
S9030000FC
